:100000000C9434000C9451000C9451000C94510049
:100010000C9451000C9451000C9451000C9451001C
:100020000C9451000C9451000C9451000C9451000C
:100030000C9451000C9451000C9451000C945100FC
:100040000C9451000C9451000C9459010C94B10182
:100050000C9451000C9451000C9451000C945100DC
:100060000C9451000C94510011241FBECFEFD8E026
:10007000DEBFCDBF12E0A0E0B1E0E2E9F6E002C0F1
:1000800005900D92A038B107D9F723E0A0E8B2E0BF
:1000900001C01D92AE37B207E1F70E9453000C94E5
:1000A00047030C940000CF93DF93CDB7DEB7C55064
:1000B000D1400FB6F894DEBF0FBECDBF8DEDE6E0A8
:1000C000F1E0DE01119601900D928A95E1F788E248
:1000D000E3EEF1E0DE01A252BF4F01900D928A954E
:1000E000E1F741E061E083E30E9404010E94CF0058
:1000F0007894CE0101960E94220110E001C010E028
:100100000E945101882329F00E943A010E94D000E8
:10011000182F153339F4CE0182529F4F0E942201CD
:1001200010E0EECF153461F7EACF1092C10096E0EF
:100130009093C2001092C5008093C4000895E1EC32
:10014000F0E08081886080830895E1ECF0E08081B8
:10015000806280830895E1ECF0E080818F7D808370
:100160000895E1ECF0E08081806180830895E1EC06
:10017000F0E080818068808308958093C6000895B0
:100180008BE092E00E94220108958EE292E00E94AC
:10019000220108958FE492E00E94220108950895BB
:1001A000CF93DF93EC0162E772E00E942F03892B6B
:1001B00021F40E94C00080E024C065E772E0CE0117
:1001C0000E942F03892B21F40E94C50080E019C0F2
:1001D00069E772E0CE010E942F03892B21F40E946F
:1001E000CA0085E40EC0CE010E9411038436910539
:1001F0002CF08131974224F085E303C085E301C0F0
:1002000080E0DF91CF910895CF93DF93D62FC42F55
:100210000E949500D1110E949F00C1110E94B1005F
:100220000E94B700DF91CF91089590917803913E9D
:1002300040F4E92FF0E0EA56FD4F80839F5F9093F2
:10024000780308950F931F93CF938C01C0E003C0F0
:100250000E941501CF5FF801EC0FF11D8081811123
:10026000F7CF81E0809381020E94A500CF911F917A
:100270000F910895CF93DF93E2E8F2E0DF010D9054
:100280000020E9F7CD010197825892400E94F001C9
:10029000EC0162E872E00E943803CE01DF91CF9159
:1002A000089580918002882319F01092800281E0E5
:1002B00008951F920F920FB60F9211242F933F9320
:1002C0004F935F936F937F938F939F93AF93BF935E
:1002D000EF93FF93CF93DF931F92CDB7DEB780915B
:1002E000C600898389818D30C9F0E091770381E070
:1002F0008E0F809377038DECE89F812D11248295DA
:100300008F70880F880F982F990F990F890FE81B0E
:10031000F0E08981EE57FD4F80830FC0E0917703B5
:10032000F0E0EE57FD4F1082109277038DE792E0D8
:100330000E94220181E0809380020F90DF91CF9193
:10034000FF91EF91BF91AF919F918F917F916F91AD
:100350005F914F913F912F910F900FBE0F901F9083
:1003600018951F920F920FB60F9211242F933F935F
:100370004F935F936F937F938F939F93AF93BF93AD
:10038000EF93FF93809181028823C9F0E091790374
:1003900080917803E81758F481E08E0F80937903F9
:1003A000F0E0EA56FD4F80810E94BD0008C0109227
:1003B000810210927903109278030E94AB00FF91A2
:1003C000EF91BF91AF919F918F917F916F915F91CD
:1003D0004F913F912F910F900FBE0F901F90189546
:1003E0000F931F93CF93DF938230910510F482E037
:1003F00090E0E0917C03F0917D0320E030E0A0E00C
:10040000B0E0309719F14081518102811381481782
:100410005907C8F08417950769F4109731F01296C0
:100420000C93129713961C9327C000937C03109390
:100430007D0322C02115310519F04217530718F426
:100440009A01BD01EF01DF01F801DBCF2115310574
:10045000F9F0281B390B2430310580F48A819B8107
:100460006115710521F0FB019383828304C0909391
:100470007D0380937C03FE01329644C0FE01E20FAF
:10048000F31F8193919322503109398328833AC015
:1004900020917A0330917B03232B41F420910201B8
:1004A0003091030130937B0320937A032091000164
:1004B000309101012115310541F42DB73EB740912E
:1004C000040150910501241B350BE0917A03F09152
:1004D0007B03E217F307A0F42E1B3F0B2817390705
:1004E00078F0AC014E5F5F4F2417350748F04E0F90
:1004F0005F1F50937B0340937A038193919302C0D3
:10050000E0E0F0E0CF01DF91CF911F910F910895CE
:10051000CF93DF93009709F481C0FC0132971382D7
:100520001282A0917C03B0917D03109781F4208109
:100530003181820F931F20917A0330917B0328171A
:10054000390751F5F0937B03E0937A0367C0ED011F
:1005500020E030E0CE17DF0740F44A815B819E0146
:1005600041155105F1F0EA01F5CFD383C2834081F3
:100570005181840F951FC817D90759F48881998133
:10058000840F951F0296918380838A819B81938338
:1005900082832115310529F4F0937D03E0937C03D8
:1005A0003DC0E901FB83EA8349915991C40FD51FEE
:1005B000EC17FD0761F480819181840F951F0296ED
:1005C000E90199838883828193819B838A83E0E018
:1005D000F0E012968D919C911397009719F0FD0110
:1005E000DC01F7CF8D919C9111979D012E5F3F4FBC
:1005F000820F931F20917A0330917B0328173907CC
:1006000069F4309729F410927D0310927C0302C0A4
:1006100013821282B0937B03A0937A03DF91CF9170
:100620000895FC0188279927E89421912032E9F365
:10063000293010F02E30C8F32B3241F02D3239F42E
:10064000689404C00E943F03820F911D21912053A2
:100650002A30C0F31EF4909581959F4F0895FB01B9
:10066000DC018D91019080190110D9F3990B089547
:10067000FB01DC0101900D920020E1F708957AE082
:10068000979F902D879F802D910D11240895F894A8
:02069000FFCF9A
:1006920000007E0320004269656E76656E696478AB
:1006A20020616C2067656E657261646F722064659B
:1006B200207365F1616C6573206469676974616CAC
:1006C20065732070726F6772616D61626C650D2077
:1006D200506F72206661766F722C20696E67726548
:1006E200736520756E61206672656375656E6369F8
:1006F2006120656E7472652031303020792031308E
:10070200303030487A206F20756E20636F6D616ED5
:10071200646F0D204F4E3A20656E63656E6465729C
:100722002067656E657261646F72286672656375B3
:10073200656E63696120706F7220646566656374BB
:100742006F3A20313030487A292C204F46463A20E1
:100752006170616761722067656E657261646F7254
:100762002C205253543A207265696E696369617232
:100772000D0A004C6F207369656E746F2C206E6FCA
:1007820020686520656E74656E6469646F20656CAF
:1007920020636F6D616E646F0D0A004C61206D61A4
:1007A2007175696E61207365207072656E64696F20
:1007B200206269656E2063756C6961646F004C61CB
:1007C200206D617175696E6120736520617061676A
:1007D2006F206269656E2063756C6961646F004C9D
:1007E20061206D617175696E612073652072657338
:1007F2006574656F206269656E2063756C696164FA
:100802006F004F4E004F464600525354000A0D00EF
:00000001FF
