S016000047656E657261646F724F6E6461732E7372656382
S11300000C9434000C9451000C9451000C94510045
S11300100C9451000C9451000C9451000C94510018
S11300200C9451000C9451000C9451000C94510008
S11300300C9451000C9451000C9451000C945100F8
S11300400C9451000C9451000C9431010C948E01C9
S11300500C9451000C9451000C9451000C945100D8
S11300600C9451000C94510011241FBECFEFD8E022
S1130070DEBFCDBF12E0A0E0B1E0E8E8F4E002C0EA
S113008005900D92A830B107D9F723E0A8E0B2E0BB
S113009001C01D92A330B207E1F70E9453000C94F3
S11300A042020C940000CF93DF93CDB7DEB7C55066
S11300B0D1400FB6F894DEBF0FBECDBF8DEDE0E0AA
S11300C0F1E0DE01119601900D928A95E1F788E244
S11300D0EDEDF1E0DE01A252BF4F01900D928A9541
S11300E0E1F741E061E083E30E94EA000E94BA0084
S11300F07894CE0101960E94080110E00E94290123
S1130100882329F00E9420010E94BB00182F153378
S1130110A9F7CE0182529F4F0E940801EFCF10929F
S1130120C10096E09093C2001092C5008093C40071
S11301300895E1ECF0E08081886080830895E1EC2B
S1130140F0E08081806280830895E1ECF0E08081BA
S11301508F7D80830895E1ECF0E08081806180836D
S11301600895E1ECF0E080818068808308958093B5
S1130170C60008950895CF93DF93EC016EE47FE405
S11301800E942A02892BE9F466E476E4CE010E94F7
S11301902A02892BB1F464E573E5CE010E942A0298
S11301A0892B81F4CE010E940C028436910564F0FF
S11301B0CE010E940C028131974244F4CE010E9488
S11301C00C0205C085E403C085E301C085E3DF912B
S11301D0CF910895CF93DF93D62FC42F0E948F0021
S11301E0D1110E949900C1110E94AB000E94B1007C
S11301F0DF91CF91089590910103913E40F4E92F4E
S1130200F0E0E15EFD4F80839F5F909301030895CA
S11302100F931F93CF938C01C0E003C00E94FB0097
S1130220CF5FF801EC0FF11D80818111F7CF81E0E0
S1130230809309020E949F00CF911F910F9108950E
S11302406BE072E080E090E00E9433028BE092E089
S1130250089580910802882319F01092080281E021
S113026008951F920F920FB60F9211242F933F936C
S11302704F935F936F937F938F939F93AF93BF93AA
S1130280EF93FF93CF93DF931F92CDB7DEB78091A7
S1130290C600898389818D30F1F0E091000381E00B
S11302A08E0F809300038DECE89F812D112482959D
S11302B08F70880F880F982F990F990F890FE81B5B
S11302C0F0E08981E55FFD4F808381E080930A023D
S11302D00E949F000FC0E0910003F0E0E55FFD4F36
S11302E010821092000385E092E00E94080181E0F0
S11302F0809308020F90DF91CF91FF91EF91BF910E
S1130300AF919F918F917F916F915F914F913F91A9
S11303102F910F900FBE0F901F9018951F920F9260
S11303200FB60F9211242F933F934F935F936F93C4
S11303307F938F939F93AF93BF93EF93FF9380919A
S11303400A02882399F08091000390E0019764E108
S113035070E00E94E401FC01E55FFD4F80810E9492
S1130360B70010920A020E94A5001DC080910902E4
S11303708823C9F0E091020380910103E81758F43F
S113038081E08E0F80930203F0E0E15EFD4F8081F7
S11303900E94B70008C01092090210920203109242
S11303A001030E94A500FF91EF91BF91AF919F912E
S11303B08F917F916F915F914F913F912F910F900A
S11303C00FBE0F901F90189597FB072E16F40094FC
S11303D007D077FD09D00E94F80107FC05D03EF450
S11303E0909581959F4F0895709561957F4F0895DD
S11303F0AA1BBB1B51E107C0AA1FBB1FA617B70747
S113040010F0A61BB70B881F991F5A95A9F7809562
S11304109095BC01CD010895FC0188279927E894A3
S113042021912032E9F3293010F02E30C8F32B3219
S113043041F02D3239F4689404C00E943A02820FCC
S1130440911D219120532A30C0F31EF4909581957B
S11304509F4F0895FB01DC018D91019080190110DB
S1130460D9F3990B0895FB01DC0101900D92002052
S1130470E1F708957AE0979F902D879F802D910D45
S10B048011240895F894FFCF44
S11304884269656E76656E69647820616C2067657B
S11304986E657261646F72206465207365F1616CC6
S11304A86573206469676974616C65732070726F21
S11304B86772616D61626C650D20506F72206661B0
S11304C8766F722C20696E677265736520756E612C
S11304D8206672656375656E63696120656E747202
S11304E865203130302079203130303030487A205E
S11304F86F20756E20636F6D616E646F0D204F4EB3
S11305083A20656E63656E6465722067656E657210
S113051861646F72286672656375656E63696120CC
S1130528706F72206465666563746F3A2031303089
S1130538487A292C204F46463A20617061676172D7
S11305482067656E657261646F722C205253543A49
S1130558207265696E69636961720D0A004C6F20C7
S11305687369656E746F2C206E6F20686520656EE4
S113057874656E6469646F20656C20636F6D616E69
S10B0588646F0D0A000A0D0066
S9030000FC
