S016000047656E657261646F724F6E6461732E7372656382
S11300000C9434000C9451000C9451000C94510045
S11300100C9451000C9451000C9451000C94510018
S11300200C9451000C9451000C9451000C94510008
S11300300C9451000C9451000C9451000C945100F8
S11300400C9451000C9451000C9499010C94ED0102
S11300500C9451000C9451000C9451000C945100D8
S11300600C9451000C94510011241FBECFEFD8E022
S1130070DEBFCDBF12E0A0E0B1E0E0E6F7E002C0F1
S113008005900D92A231B107D9F723E0A2E1B2E0C5
S113009001C01D92A532B207E1F70E9453000C94EF
S11300A0AE030C940000CF93DF93CDB7DEB7C650F8
S11300B0D1400FB6F894DEBF0FBECDBF8EEDE0E0A9
S11300C0F1E0DE01119601900D928A95E1F788E244
S11300D0EEEDF1E0DE01A152BF4F01900D928A9541
S11300E0E1F741E061E087E60E9452010E94E500E9
S11300F07894CE0101960E94700110E00E94910153
S1130100882329F00E9488010E94F300182F1534D7
S113011039F4CE0181529F4F0E94700110E0EECF5E
S11301201A3261F7CE0101960E94700110E0E6CF09
S11301301092C10096E09093C2001092C500809383
S1130140C4000895E1ECF0E0808188608083089524
S1130150E1ECF0E08081806280830895E1ECF0E0DE
S113016080818F7D80830895E1ECF0E0808180615F
S113017080830895E1ECF0E08081806880830895B5
S11301808093C60008958091C60008959C0140E0C4
S113019050E06FE372E48FE090E00E945603CA01DE
S11301A0B9010E94C80220E030E040E05FE30E9411
S11301B02D020E949902CB010E94410108950E94E0
S11301C0460108950E944C01089568E084E00E946D
S11301D02A0184E690E00E94C60008950E94E5008A
S11301E00E94E2000895CF93DF93EC0166E072E091
S11301F00E949603892B21F40E94DF0080E027C02F
S113020069E072E0CE010E949603892B21F40E94DA
S1130210E20080E01CC06DE072E0CE010E94960313
S1130220892B21F40E94EE008AE211C0CE010E94C3
S113023078038436910544F0813127E2920734F43F
S11302400E94C60080E003C085E401C085E4DF911C
S1130250CF91089592E094B9843029F4E1E8F0E074
S1130260808188608083683029F4E1E8F0E080814F
S1130270826080838FEF9FEF909389008093880042
S1130280089590938900809388000895E0E8F0E051
S11302908081806480830895E0E8F0E080818F7B32
S11302A080830895CF93DF93D62FC42F0E949800A4
S11302B0D1110E94A200C1110E94B4000E94BA0090
S11302C0DF91CF91089590912303963E40F4E92F56
S11302D0F0E0E45CFD4F80839F5F909323030895D7
S11302E00F931F93CF938C01C0E003C00E9463015E
S11302F0CF5FF801EC0FF11D80818111F7CF81E010
S1130300809313020E94A800CF911F910F9108952A
S113031068E272E084E192E00E949F0384E192E04B
S1130320089580911202882319F01092120281E03C
S113033008951F920F920FB60F9211242F933F939B
S11303404F935F936F937F938F939F93AF93BF93D9
S1130350EF93FF93CF93DF931F92CDB7DEB70E9445
S1130360C300898389818D30C9F0E091220381E043
S11303708E0F809322038DECE89F812D11248295AA
S11303808F70880F880F982F990F990F890FE81B8A
S1130390F0E08981E85DFD4F80830BC0E09122038A
S11303A0F0E0E85DFD4F10821092220381E080931B
S11303B012020F90DF91CF91FF91EF91BF91AF9116
S11303C09F918F917F916F915F914F913F912F9169
S11303D00F900FBE0F901F9018951F920F920FB69B
S11303E00F9211242F933F934F935F936F937F93B7
S11303F08F939F93AF93BF93EF93FF9380911302D7
S11304008823C9F0E091240380912303E81758F46A
S113041081E08E0F80932403F0E0E45CFD4F808143
S11304200E94C00008C0109213021092240310927C
S113043023030E94AE00FF91EF91BF91AF919F9172
S11304408F917F916F915F914F913F912F910F9079
S11304500FBE0F901F9018955058BB27AA270E94D3
S113046044020C941C030E940E0338F00E941503EE
S113047020F039F49F3F19F426F40C940B030EF486
S1130480E095E7FB0C940503E92F0E942D0358F334
S1130490BA17620773078407950720F079F4A6F565
S11304A00C944F030EF4E0950B2EBA2FA02D0B01E4
S11304B0B90190010C01CA01A0011124FF27591BA5
S11304C099F0593F50F4503E68F11A16F040A22FAB
S11304D0232F342F4427585FF3CF4695379527951C
S11304E0A795F0405395C9F77EF41F16BA0B620B1B
S11304F0730B840BBAF09150A1F0FF0FBB1F661F62
S1130500771F881FC2F70EC0BA0F621F731F841FA4
S113051048F4879577956795B795F7959E3F08F0CA
S1130520B0CF9395880F08F09927EE0F979587958C
S113053008950E94350388F09F5798F0B92F9927A2
S1130540B751B0F0E1F0660F771F881F991F1AF0BA
S1130550BA95C9F714C0B13091F00E944F03B1E0CD
S113056008950C944F03672F782F8827B85F39F0CC
S1130570B93FCCF3869577956795B395D9F73EF453
S113058090958095709561957F4F8F4F9F4F0895FB
S1130590E89409C097FB3EF4909580957095619519
S11305A07F4F8F4F9F4F9923A9F0F92F96E9BB27CF
S11305B09395F695879577956795B795F111F8CF4B
S11305C0FAF4BB0F11F460FF1BC06F5F7F4F8F4FB6
S11305D09F4F16C0882311F096E911C0772321F0AC
S11305E09EE8872F762F05C0662371F096E8862F44
S11305F070E060E02AF09A95660F771F881FDAF79B
S1130600880F9695879597F9089597F99F6780E8DD
S113061070E060E008959FEF80EC089500240A9450
S11306201616170618060906089500240A941216C9
S11306301306140605060895092E0394000C11F4FC
S1130640882352F0BB0F40F4BF2B11F460FF04C0A9
S11306506F5F7F4F8F4F9F4F089557FD9058440F02
S1130660551F59F05F3F71F04795880F97FB991F0D
S113067061F09F3F79F087950895121613061406CA
S1130680551FF2CF4695F1DF08C016161706180657
S1130690991FF1CF86957105610508940895E89432
S11306A0BB2766277727CB0197F90895A1E21A2E75
S11306B0AA1BBB1BFD010DC0AA1FBB1FEE1FFF1F02
S11306C0A217B307E407F50720F0A21BB30BE40B52
S11306D0F50B661F771F881F991F1A9469F7609599
S11306E07095809590959B01AC01BD01CF01089553
S11306F0FC0188279927E89421912032E9F32930D5
S113070010F02E30C8F32B3241F02D3239F46894B6
S113071004C00E94A603820F911D219120532A3008
S1130720C0F31EF4909581959F4F0895FB01DC0161
S11307308D91019080190110D9F3990B0895FB0153
S1130740DC0101900D920020E1F708957AE0979F73
S1130750902D879F802D910D11240895F894FFCF3B
S11307604269656E76656E69647820616C206765A0
S11307706E657261646F72206465207365F1616CEB
S11307806573206469676974616C65732070726F46
S11307906772616D61626C650D20506F72206661D5
S11307A0766F722C20696E677265736520756E6151
S11307B0206672656375656E63696120656E747227
S11307C065203130302079203130303030487A2083
S11307D06F20756E20636F6D616E646F0D204F4ED8
S11307E03A20656E63656E6465722067656E657236
S11307F061646F72286672656375656E63696120F2
S1130800706F72206465666563746F3A20313030AE
S1130810487A292C204F46463A20617061676172FC
S11308202067656E657261646F722C205253543A6E
S1130830207265696E6963696172200D0A004C6FEC
S1130840207369656E746F2C206E6F206865206557
S11308506E74656E6469646F20656C20636F6D618E
S11308606E646F0D0A004F4E004F464600525354BB
S1050870000082
S9030000FC
