:100000000C9434000C9451000C9451000C94510049
:100010000C9451000C9451000C9451000C9451001C
:100020000C9451000C9451000C9451000C9451000C
:100030000C9451000C9451000C9451000C945100FC
:100040000C9451000C9451000C944F010C94A70196
:100050000C9451000C9451000C9451000C945100DC
:100060000C9451000C94510011241FBECFEFD8E026
:10007000DEBFCDBF12E0A0E0B1E0ECE3F4E002C0EF
:1000800005900D92AE37B107D9F723E0AEE7B2E0A5
:1000900001C01D92A837B207E1F70E9453000C94EB
:1000A0001C020C940000CF93DF93CDB7DEB7C55090
:1000B000D1400FB6F894DEBF0FBECDBF8DEDEEE0A0
:1000C000F1E0DE01119601900D928A95E1F788E248
:1000D000EBEEF1E0DE01A252BF4F01900D928A9546
:1000E000E1F741E061E083E30E9404010E94CF0058
:1000F0007894CE0101960E94220110E001C010E028
:100100000E944701882329F00E943A010E94D000F2
:10011000182F153339F4CE0182529F4F0E942201CD
:1001200010E0EECF153461F7EACF1092C10096E0EF
:100130009093C2001092C5008093C4000895E1EC32
:10014000F0E08081886080830895E1ECF0E08081B8
:10015000806280830895E1ECF0E080818F7D808370
:100160000895E1ECF0E08081806180830895E1EC06
:10017000F0E080818068808308958093C6000895B0
:1001800083E192E00E942201089586E392E00E94BA
:100190002201089587E592E00E94220108950895C2
:1001A000CF93DF93EC0160E071E00E940402892BA1
:1001B00021F40E94C00080E024C064E071E0CE0120
:1001C0000E940402892B21F40E94C50080E019C01E
:1001D00069E071E0CE010E940402892B21F40E94A3
:1001E000CA0085E40EC0CE010E94E6018436910566
:1001F0002CF08131974224F085E303C085E301C0F0
:1002000080E0DF91CF910895CF93DF93D62FC42F55
:100210000E949500D1110E949F00C1110E94B1005F
:100220000E94B700DF91CF91089590917603913E9F
:1002300040F4E92FF0E0EC56FD4F80839F5F9093F0
:10024000760308950F931F93CF938C01C0E003C0F2
:100250000E941501CF5FF801EC0FF11D8081811123
:10026000F7CF81E080937F020E94A500CF911F917C
:100270000F910895CF93DF9360E872E0C0E0D0E083
:10028000CE010E940D02CE01DF91CF9108958091A1
:100290007E02882319F010927E0281E008951F9259
:1002A0000F920FB60F9211242F933F934F935F93AA
:1002B0006F937F938F939F93AF93BF93EF93FF932E
:1002C000CF93DF931F92CDB7DEB78091C6008983AD
:1002D00089818D30C9F0E091750381E08E0F8093A4
:1002E00075038DECE89F812D112482958F70880F06
:1002F000880F982F990F990F890FE81BF0E08981DB
:10030000E058FD4F80830FC0E0917503F0E0E058A6
:10031000FD4F1082109275038AE792E00E9422013D
:1003200081E080937E020F90DF91CF91FF91EF915A
:10033000BF91AF919F918F917F916F915F914F91FD
:100340003F912F910F900FBE0F901F9018951F9205
:100350000F920FB60F9211242F933F934F935F93F9
:100360006F937F938F939F93AF93BF93EF93FF937D
:1003700080917F028823C9F0E09177038091760312
:10038000E81758F481E08E0F80937703F0E0EC5685
:10039000FD4F80810E94BD0008C010927F02109224
:1003A0007703109276030E94AB00FF91EF91BF910B
:1003B000AF919F918F917F916F915F914F913F91FD
:1003C0002F910F900FBE0F901F901895FC0188275A
:1003D0009927E89421912032E9F3293010F02E304A
:1003E000C8F32B3241F02D3239F4689404C00E94D6
:1003F0001402820F911D219120532A30C0F31EF464
:10040000909581959F4F0895FB01DC018D9101909E
:1004100080190110D9F3990B0895FB01DC010190BB
:100420000D920020E1F708957AE0979F902D879F25
:0C043000802D910D11240895F894FFCF49
:10043C004F4E00004F464600005253540000426994
:10044C00656E76656E69647820616C2067656E6593
:10045C007261646F72206465207365F1616C657301
:10046C00206469676974616C65732070726F677260
:10047C00616D61626C650D20506F72206661766FE4
:10048C00722C20696E677265736520756E612066CB
:10049C0072656375656E63696120656E7472652043
:1004AC003130302079203130303030487A206F2094
:1004BC00756E20636F6D616E646F0D204F4E3A2028
:1004CC00656E63656E6465722067656E65726164E6
:1004DC006F72286672656375656E63696120706FF3
:1004EC0072206465666563746F3A20313030487AE7
:1004FC00292C204F46463A20617061676172206753
:10050C00656E657261646F722C205253543A20727E
:10051C0065696E69636961720D0A004C6F207369BD
:10052C00656E746F2C206E6F20686520656E746527
:10053C006E6469646F20656C20636F6D616E646FAF
:10054C000D0A004C61206D617175696E61207365D7
:10055C00207072656E64696F206269656E206375C8
:10056C006C6961646F004C61206D617175696E61BD
:10057C0020736520617061676F206269656E20630E
:10058C00756C6961646F004C61206D617175696E89
:10059C0061207365207265736574656F206269658F
:0E05AC006E2063756C6961646F000A0D0000BB
:00000001FF
