:100000000C9434000C9451000C9451000C94510049
:100010000C9451000C9451000C9451000C9451001C
:100020000C9451000C9451000C9451000C9451000C
:100030000C9451000C9451000C9451000C945100FC
:100040000C9451000C9451000C943A010C949201C0
:100050000C9451000C9451000C9451000C945100DC
:100060000C9451000C94510011241FBECFEFD8E026
:10007000DEBFCDBF12E0A0E0B1E0E2E1F4E002C0FB
:1000800005900D92A431B107D9F723E0A4E1B2E0C5
:1000900001C01D92AE30B207E1F70E9453000C94EC
:1000A00007020C940000CF93DF93CDB7DEB7C550A5
:1000B000D1400FB6F894DEBF0FBECDBF8DEDE0E0AE
:1000C000F1E0DE01119601900D928A95E1F788E248
:1000D000EDEDF1E0DE01A252BF4F01900D928A9545
:1000E000E1F741E061E083E30E94EF000E94C0007D
:1000F0007894CE0101960E940D0110E001C010E03D
:100100000E943201882329F00E9425010E94C1002B
:10011000182F153339F4CE0182529F4F0E940D01E2
:1001200010E0EECF153461F7EACF1092C10096E0EF
:100130009093C2001092C5008093C4000895E1EC32
:10014000F0E08081886080830895E1ECF0E08081B8
:10015000806280830895E1ECF0E080818F7D808370
:100160000895E1ECF0E08081806180830895E1EC06
:10017000F0E080818068808308958093C6000895B0
:100180000895CF93DF93EC0165E072E00E94EF01E8
:10019000892BC9F468E072E0CE010E94EF01892B3F
:1001A000A1F46CE072E0CE010E94EF01892B79F49A
:1001B000CE010E94D101843691055CF081319742D5
:1001C00054F085E309C080E007C080E005C085E405
:1001D00003C085E301C080E0DF91CF910895CF9304
:1001E000DF93D62FC42F0E949500D1110E949F004B
:1001F000C1110E94B1000E94B700DF91CF91089514
:1002000090910C03913E40F4E92FF0E0E65DFD4F44
:1002100080839F5F90930C0308950F931F93CF9358
:100220008C01C0E003C00E940001CF5FF801EC0F19
:10023000F11D80818111F7CF81E0809315020E942A
:10024000A500CF911F910F910895CF93DF9366E1A1
:1002500072E0C0E0D0E0CE010E94F801CE01DF9153
:10026000CF91089580911402882319F010921402FE
:1002700081E008951F920F920FB60F9211242F93D1
:100280003F934F935F936F937F938F939F93AF931E
:10029000BF93EF93FF93CF93DF931F92CDB7DEB75A
:1002A0008091C600898389818D30C9F0E0910B036C
:1002B00081E08E0F80930B038DECE89F812D11243C
:1002C00082958F70880F880F982F990F990F890F3B
:1002D000E81BF0E08981EA5EFD4F80830FC0E0916A
:1002E0000B03F0E0EA5EFD4F108210920B0380E1F9
:1002F00092E00E940D0181E0809314020F90DF9143
:10030000CF91FF91EF91BF91AF919F918F917F918D
:100310006F915F914F913F912F910F900FBE0F9072
:100320001F9018951F920F920FB60F9211242F93C2
:100330003F934F935F936F937F938F939F93AF936D
:10034000BF93EF93FF93809115028823C9F0E0914A
:100350000D0380910C03E81758F481E08E0F809311
:100360000D03F0E0E65DFD4F80810E94BD0008C0F6
:100370001092150210920D0310920C030E94AB0014
:10038000FF91EF91BF91AF919F918F917F916F916D
:100390005F914F913F912F910F900FBE0F901F9043
:1003A0001895FC0188279927E89421912032E9F3D8
:1003B000293010F02E30C8F32B3241F02D3239F4B1
:1003C000689404C00E94FF01820F911D2191205367
:1003D0002A30C0F31EF4909581959F4F0895FB013C
:1003E000DC018D91019080190110D9F3990B0895CA
:1003F000FB01DC0101900D920020E1F708957AE005
:10040000979F902D879F802D910D11240895F8942A
:02041000FFCF1C
:100412004269656E76656E69647820616C206765F5
:100422006E657261646F72206465207365F1616C40
:100432006573206469676974616C65732070726F9B
:100442006772616D61626C650D20506F722066612A
:10045200766F722C20696E677265736520756E61A6
:10046200206672656375656E63696120656E74727C
:1004720065203130302079203130303030487A20D8
:100482006F20756E20636F6D616E646F0D204F4E2D
:100492003A20656E63656E6465722067656E65728B
:1004A20061646F72286672656375656E6369612047
:1004B200706F72206465666563746F3A2031303004
:1004C200487A292C204F46463A2061706167617252
:1004D2002067656E657261646F722C205253543AC4
:1004E200207265696E69636961720D0A004C6F2042
:1004F2007369656E746F2C206E6F20686520656E5F
:1005020074656E6469646F20656C20636F6D616EE3
:10051200646F0D0A004F4E004F464600525354007E
:040522000A0D0000BE
:00000001FF
