S016000047656E657261646F724F6E6461732E7372656382
S11300000C9434000C9451000C9451000C94510045
S11300100C9451000C9451000C9451000C94510018
S11300200C9451000C9451000C9451000C94510008
S11300300C9451000C9451000C9451000C945100F8
S11300400C9451000C9451000C94A7010C94F001F1
S11300500C9451000C9451000C9451000C945100D8
S11300600C9451000C94510011241FBECFEFD8E022
S1130070DEBFCDBF12E0A0E0B1E0ECE0F8E002C0EA
S113008005900D92AE30B107D9F723E0AEE0B2E0AF
S113009001C01D92A232B207E1F70E9453000C94F2
S11300A004040C940000CF93DF93CDB7DEB7C350A4
S11300B0D1400FB6F894DEBF0FBECDBF8EEDE0E0A9
S11300C0F1E0DE01119601900D928A95E1F785E247
S11300D0EEEDF1E0DE01A152BF4F01900D928A9541
S11300E0E1F741E061E087E60E945C010E94EF00D5
S11300F07894CE0101960E947E010E949F0188237C
S1130100E1F30E9496010E94FD008823B1F3853437
S113011031F4CE0181529F4F0E947E01EECF8A328C
S113012061F7CE0101960E947E01E7CF1092C100D3
S113013096E09093C2001092C5008093C400089585
S1130140E1ECF0E08081886080830895E1ECF0E0E8
S11301508081806280830895E1ECF0E080818F7D6E
S113016080830895E1ECF0E08081806180830895CC
S1130170E1ECF0E080818068808308958093C6007C
S113018008958091C6000895BC0180E090E00E942B
S113019040039B01AC0160E074E284E799E40E94AF
S11301A09F020E94110380E090E00E94400320E03F
S11301B030E040E05FE30E94330220E030E040E8BA
S11301C05FE30E9432020E941103CB010E944B01A3
S11301D008950E94500108950E945601089568E010
S11301E084E00E94340184E690E00E94C4000895F3
S11301F00E94EF000E94EC000895CF93DF93EC017E
S113020063E072E00E94EC03892B21F40E94E90070
S113021080E027C066E072E0CE010E94EC03892BE7
S113022021F40E94EC0080E01CC06AE072E0CE0180
S11302300E94EC03892B21F40E94F8008AE211C089
S1130240CE010E94CE038436910544F0813127E229
S1130250920734F40E94C40080E003C085E401C026
S113026085E4DF91CF91089592E094B9843029F424
S1130270E1E8F0E0808188608083683029F4E1E877
S1130280F0E08081826080838FEF9FEF90938900FC
S1130290809388000895909389008093880008953E
S11302A0E0E8F0E08081806480830895E0E8F0E095
S11302B080818F7B80830895CF93DF93D62FC42FC3
S11302C00E949600D1110E94A000CC2321F00E942C
S11302D0B2000E94B800DF91CF910895909120035D
S11302E0963E48F4E92FF0E0E75CFD4F80839F5F82
S11302F090932003089510920E0208950F931F9374
S1130300CF938C01C0E003C00E946E01CF5FF8015F
S1130310EC0FF11D80818111F7CF81E080931002F1
S11303200E94A600CF911F910F91089565E272E09B
S113033081E192E00E94F50381E192E008958091C9
S11303400F02882319F010920F0281E008951F9282
S11303500F920FB60F9211242F933F934F935F93F5
S11303606F937F938F939F93AF93BF93EF93FF9379
S1130370CF93DF931F92CDB7DEB70E94C10089836C
S113038089818D3071F0E0911F03E331A8F481E09D
S11303908E0F80931F03F0E08981EB5DFD4F808316
S11303A00BC0E0911F03F0E0EB5DFD4F1082109253
S11303B01F0381E080930F020F90DF91CF91FF9193
S11303C0EF91BF91AF919F918F917F916F915F91C9
S11303D04F913F912F910F900FBE0F901F90189542
S11303E01F920F920FB60F9211242F933F934F93A6
S11303F05F936F937F938F939F93AF93BF93EF9389
S1130400FF93809110028823E1F0E0912103809111
S11304102003E81758F481E08E0F80932103F0E065
S1130420E75CFD4F80810E94BE000BC01092100259
S1130430109221031092200382E080930E020E9406
S1130440AC00FF91EF91BF91AF919F918F917F91FC
S11304506F915F914F913F912F910F900FBE0F902D
S11304601F9018955058BB27AA270E944A020C9443
S113047094030E94860338F00E948D0320F039F41F
S11304809F3F19F426F40C9483030EF4E095E7FBE4
S11304900C947D03E92F0E94A50358F3BA17620751
S11304A073078407950720F079F4A6F50C94C70325
S11304B00EF4E0950B2EBA2FA02D0B01B90190017B
S11304C00C01CA01A0011124FF27591B99F0593FBF
S11304D050F4503E68F11A16F040A22F232F342F07
S11304E04427585FF3CF469537952795A795F04055
S11304F05395C9F77EF41F16BA0B620B730B840B6A
S1130500BAF09150A1F0FF0FBB1F661F771F881F21
S1130510C2F70EC0BA0F621F731F841F48F4879579
S113052077956795B795F7959E3F08F0B0CF93956B
S1130530880F08F09927EE0F9795879508950E94E4
S1130540B3020C9494030E948D0358F00E94860316
S113055040F029F45F3F29F00C947D0351110C9471
S1130560C8030C9483030E94A50368F39923B1F391
S1130570552391F3951B550BBB27AA2762177307C5
S1130580840738F09F5F5F4F220F331F441FAA1F59
S1130590A9F335D00E2E3AF0E0E832D09150504015
S11305A0E695001CCAF72BD0FE2F29D0660F771FC3
S11305B0881FBB1F261737074807AB07B0E809F0A9
S11305C0BB0B802DBF01FF2793585F4F3AF09E3F2E
S11305D0510578F00C947D030C94C8035F3FE4F359
S11305E0983ED4F3869577956795B795F7959F5F71
S11305F0C9F7880F911D9695879597F90895E1E0BD
S1130600660F771F881FBB1F621773078407BA071B
S113061020F0621B730B840BBA0BEE1F88F7E09576
S113062008950E94AD0388F09F5798F0B92F992739
S1130630B751B0F0E1F0660F771F881F991F1AF0C9
S1130640BA95C9F714C0B13091F00E94C703B1E064
S113065008950C94C703672F782F8827B85F39F063
S1130660B93FCCF3869577956795B395D9F73EF462
S113067090958095709561957F4F8F4F9F4F08950A
S1130680E89409C097FB3EF4909580957095619528
S11306907F4F8F4F9F4F9923A9F0F92F96E9BB27DE
S11306A09395F695879577956795B795F111F8CF5A
S11306B0FAF4BB0F11F460FF1BC06F5F7F4F8F4FC5
S11306C09F4F16C0882311F096E911C0772321F0BB
S11306D09EE8872F762F05C0662371F096E8862F53
S11306E070E060E02AF09A95660F771F881FDAF7AA
S11306F0880F9695879597F9089597F99F6780E8ED
S113070070E060E008959FEF80EC089500240A945F
S11307101616170618060906089500240A941216D8
S11307201306140605060895092E0394000C11F40B
S1130730882352F0BB0F40F4BF2B11F460FF04C0B8
S11307406F5F7F4F8F4F9F4F089557FD9058440F11
S1130750551F59F05F3F71F04795880F97FB991F1C
S113076061F09F3F79F087950895121613061406D9
S1130770551FF2CF4695F1DF08C016161706180666
S1130780991FF1CF86957105610508940895E89441
S1130790BB2766277727CB0197F90895FC018827A3
S11307A09927E89421912032E9F3293010F02E3072
S11307B0C8F32B3241F02D3239F4689404C00E94FE
S11307C0FC03820F911D219120532A30C0F31EF4A3
S11307D0909581959F4F0895FB01DC018D910190C7
S11307E080190110D9F3990B0895FB01DC010190E4
S11307F00D920020E1F708957AE0979F902D879F4E
S10F0800802D910D11240895F894FFCF71
S113080C4269656E76656E69647820616C206765F3
S113081C6E657261646F72206465207365F1616C3E
S113082C6573206469676974616C65732070726F99
S113083C6772616D61626C650D20506F7220666128
S113084C766F722C20696E677265736520756E61A4
S113085C206672656375656E63696120656E74727A
S113086C65203130302079203130303030487A20D6
S113087C6F20756E20636F6D616E646F0D204F4E2B
S113088C3A20656E63656E6465722067656E657289
S113089C61646F72286672656375656E6369612045
S11308AC706F72206465666563746F3A2031303002
S11308BC487A292C204F46463A2061706167617250
S11308CC2067656E657261646F722C205253543AC2
S11308DC207265696E6963696172200D0A004C6F40
S11308EC207369656E746F2C20656C20636F6D6169
S11308FC6E646F206E6F2065732076616C69646F13
S111090C0D0A004F4E004F4646005253540051
S9030000FC
